{
  "contractName": "votingV2",
  "abi": [
    {
      "inputs": [],
      "stateMutability": "nonpayable",
      "type": "constructor"
    },
    {
      "inputs": [
        {
          "internalType": "uint256",
          "name": "",
          "type": "uint256"
        }
      ],
      "name": "Candidate",
      "outputs": [
        {
          "internalType": "address",
          "name": "",
          "type": "address"
        }
      ],
      "stateMutability": "view",
      "type": "function",
      "constant": true
    },
    {
      "inputs": [],
      "name": "Owner",
      "outputs": [
        {
          "internalType": "address",
          "name": "",
          "type": "address"
        }
      ],
      "stateMutability": "view",
      "type": "function",
      "constant": true
    },
    {
      "inputs": [
        {
          "internalType": "address",
          "name": "",
          "type": "address"
        }
      ],
      "name": "Voters",
      "outputs": [
        {
          "internalType": "enum votingV2.VotingStatus",
          "name": "",
          "type": "uint8"
        }
      ],
      "stateMutability": "view",
      "type": "function",
      "constant": true
    },
    {
      "inputs": [
        {
          "internalType": "address",
          "name": "",
          "type": "address"
        }
      ],
      "name": "Votes",
      "outputs": [
        {
          "internalType": "uint256",
          "name": "",
          "type": "uint256"
        }
      ],
      "stateMutability": "view",
      "type": "function",
      "constant": true
    },
    {
      "inputs": [
        {
          "internalType": "address",
          "name": "",
          "type": "address"
        }
      ],
      "name": "candidateIndex",
      "outputs": [
        {
          "internalType": "uint256",
          "name": "",
          "type": "uint256"
        }
      ],
      "stateMutability": "view",
      "type": "function",
      "constant": true
    },
    {
      "inputs": [
        {
          "internalType": "uint256",
          "name": "_timeInHour",
          "type": "uint256"
        }
      ],
      "name": "setVotingPeriod",
      "outputs": [],
      "stateMutability": "nonpayable",
      "type": "function"
    },
    {
      "inputs": [
        {
          "internalType": "address",
          "name": "_Candidate",
          "type": "address"
        }
      ],
      "name": "addCandidate",
      "outputs": [],
      "stateMutability": "nonpayable",
      "type": "function"
    },
    {
      "inputs": [
        {
          "internalType": "address",
          "name": "_Candidate",
          "type": "address"
        }
      ],
      "name": "removeCandidate",
      "outputs": [],
      "stateMutability": "nonpayable",
      "type": "function"
    },
    {
      "inputs": [
        {
          "internalType": "address",
          "name": "_Candidate",
          "type": "address"
        }
      ],
      "name": "vote",
      "outputs": [],
      "stateMutability": "nonpayable",
      "type": "function"
    },
    {
      "inputs": [],
      "name": "candidateLength",
      "outputs": [
        {
          "internalType": "uint256",
          "name": "",
          "type": "uint256"
        }
      ],
      "stateMutability": "view",
      "type": "function",
      "constant": true
    }
  ],
  "bytecode": "0x608060405234801561001057600080fd5b50336000806101000a81548173ffffffffffffffffffffffffffffffffffffffff021916908373ffffffffffffffffffffffffffffffffffffffff160217905550611307806100606000396000f3fe608060405234801561001057600080fd5b506004361061009e5760003560e01c8063b4a99a4e11610066578063b4a99a4e14610157578063c9226c0a14610175578063e2f11b9c14610193578063ea0217cf146101c3578063fdedaa8a146101df5761009e565b80630f0e1e07146100a357806322735da8146100d35780633acd75f8146101035780636dd091f91461011f5780636dd7d8ea1461013b575b600080fd5b6100bd60048036038101906100b89190610c30565b61020f565b6040516100ca9190610c76565b60405180910390f35b6100ed60048036038101906100e89190610c30565b610227565b6040516100fa9190610c76565b60405180910390f35b61011d60048036038101906101189190610c30565b61023f565b005b61013960048036038101906101349190610c30565b610444565b005b61015560048036038101906101509190610c30565b610780565b005b61015f610a8a565b60405161016c9190610ca0565b60405180910390f35b61017d610aae565b60405161018a9190610c76565b60405180910390f35b6101ad60048036038101906101a89190610ce7565b610abb565b6040516101ba9190610ca0565b60405180910390f35b6101dd60048036038101906101d89190610ce7565b610afa565b005b6101f960048036038101906101f49190610c30565b610bad565b6040516102069190610d8b565b60405180910390f35b60066020528060005260406000206000915090505481565b60046020528060005260406000206000915090505481565b60008054906101000a900473ffffffffffffffffffffffffffffffffffffffff1673ffffffffffffffffffffffffffffffffffffffff163373ffffffffffffffffffffffffffffffffffffffff16146102cd576040517f08c379a00000000000000000000000000000000000000000000000000000000081526004016102c490610e03565b60405180910390fd5b600073ffffffffffffffffffffffffffffffffffffffff168173ffffffffffffffffffffffffffffffffffffffff16141561033d576040517f08c379a000000000000000000000000000000000000000000000000000000000815260040161033490610e6f565b60405180910390fd5b6000600460008373ffffffffffffffffffffffffffffffffffffffff1673ffffffffffffffffffffffffffffffffffffffff168152602001908152602001600020541461038957600080fd5b600460008273ffffffffffffffffffffffffffffffffffffffff1673ffffffffffffffffffffffffffffffffffffffff16815260200190815260200160002060008154809291906103d990610ebe565b91905055506001819080600181540180825580915050600190039060005260206000200160009091909190916101000a81548173ffffffffffffffffffffffffffffffffffffffff021916908373ffffffffffffffffffffffffffffffffffffffff16021790555050565b60008054906101000a900473ffffffffffffffffffffffffffffffffffffffff1673ffffffffffffffffffffffffffffffffffffffff163373ffffffffffffffffffffffffffffffffffffffff16146104d2576040517f08c379a00000000000000000000000000000000000000000000000000000000081526004016104c990610e03565b60405180910390fd5b600073ffffffffffffffffffffffffffffffffffffffff168173ffffffffffffffffffffffffffffffffffffffff161415610542576040517f08c379a000000000000000000000000000000000000000000000000000000000815260040161053990610f53565b60405180910390fd5b60005b600180549050811015610741576001818154811061056657610565610f73565b5b9060005260206000200160009054906101000a900473ffffffffffffffffffffffffffffffffffffffff1673ffffffffffffffffffffffffffffffffffffffff168273ffffffffffffffffffffffffffffffffffffffff16141561072e5760008190505b600180805490506105db9190610fa2565b81101561069b57600180826105f09190610fd6565b8154811061060157610600610f73565b5b9060005260206000200160009054906101000a900473ffffffffffffffffffffffffffffffffffffffff16600182815481106106405761063f610f73565b5b9060005260206000200160006101000a81548173ffffffffffffffffffffffffffffffffffffffff021916908373ffffffffffffffffffffffffffffffffffffffff160217905550808061069390610ebe565b9150506105ca565b5060018054806106ae576106ad61102c565b5b6001900381819060005260206000200160006101000a81549073ffffffffffffffffffffffffffffffffffffffff021916905590556000600460008473ffffffffffffffffffffffffffffffffffffffff1673ffffffffffffffffffffffffffffffffffffffff168152602001908152602001600020819055505061077d565b808061073990610ebe565b915050610545565b506040517f08c379a0000000000000000000000000000000000000000000000000000000008152600401610774906110a7565b60405180910390fd5b50565b6002544211156107c5576040517f08c379a00000000000000000000000000000000000000000000000000000000081526004016107bc90611113565b60405180910390fd5b60005b60018054905081101561089457600181815481106107e9576107e8610f73565b5b9060005260206000200160009054906101000a900473ffffffffffffffffffffffffffffffffffffffff1673ffffffffffffffffffffffffffffffffffffffff168273ffffffffffffffffffffffffffffffffffffffff1614610881576040517f08c379a00000000000000000000000000000000000000000000000000000000081526004016108789061117f565b60405180910390fd5b808061088c90610ebe565b9150506107c8565b506000600460003373ffffffffffffffffffffffffffffffffffffffff1673ffffffffffffffffffffffffffffffffffffffff1681526020019081526020016000205414610917576040517f08c379a000000000000000000000000000000000000000000000000000000000815260040161090e906111eb565b60405180910390fd5b6000600181111561092b5761092a610d14565b5b600560003373ffffffffffffffffffffffffffffffffffffffff1673ffffffffffffffffffffffffffffffffffffffff16815260200190815260200160002060009054906101000a900460ff16600181111561098a57610989610d14565b5b146109ca576040517f08c379a00000000000000000000000000000000000000000000000000000000081526004016109c190611257565b60405180910390fd5b600660008273ffffffffffffffffffffffffffffffffffffffff1673ffffffffffffffffffffffffffffffffffffffff1681526020019081526020016000206000815480929190610a1a90610ebe565b91905055506001600560003373ffffffffffffffffffffffffffffffffffffffff1673ffffffffffffffffffffffffffffffffffffffff16815260200190815260200160002060006101000a81548160ff02191690836001811115610a8257610a81610d14565b5b021790555050565b60008054906101000a900473ffffffffffffffffffffffffffffffffffffffff1681565b6000600180549050905090565b60018181548110610acb57600080fd5b906000526020600020016000915054906101000a900473ffffffffffffffffffffffffffffffffffffffff1681565b60008054906101000a900473ffffffffffffffffffffffffffffffffffffffff1673ffffffffffffffffffffffffffffffffffffffff163373ffffffffffffffffffffffffffffffffffffffff1614610b88576040517f08c379a0000000000000000000000000000000000000000000000000000000008152600401610b7f90610e03565b60405180910390fd5b610e1081610b969190611277565b90508042610ba49190610fd6565b60028190555050565b60056020528060005260406000206000915054906101000a900460ff1681565b600080fd5b600073ffffffffffffffffffffffffffffffffffffffff82169050919050565b6000610bfd82610bd2565b9050919050565b610c0d81610bf2565b8114610c1857600080fd5b50565b600081359050610c2a81610c04565b92915050565b600060208284031215610c4657610c45610bcd565b5b6000610c5484828501610c1b565b91505092915050565b6000819050919050565b610c7081610c5d565b82525050565b6000602082019050610c8b6000830184610c67565b92915050565b610c9a81610bf2565b82525050565b6000602082019050610cb56000830184610c91565b92915050565b610cc481610c5d565b8114610ccf57600080fd5b50565b600081359050610ce181610cbb565b92915050565b600060208284031215610cfd57610cfc610bcd565b5b6000610d0b84828501610cd2565b91505092915050565b7f4e487b7100000000000000000000000000000000000000000000000000000000600052602160045260246000fd5b60028110610d5457610d53610d14565b5b50565b6000819050610d6582610d43565b919050565b6000610d7582610d57565b9050919050565b610d8581610d6a565b82525050565b6000602082019050610da06000830184610d7c565b92915050565b600082825260208201905092915050565b7f4e6f7420746865206f776e657200000000000000000000000000000000000000600082015250565b6000610ded600d83610da6565b9150610df882610db7565b602082019050919050565b60006020820190508181036000830152610e1c81610de0565b9050919050565b7f6e6f7420612076616c6964206164647265737300000000000000000000000000600082015250565b6000610e59601383610da6565b9150610e6482610e23565b602082019050919050565b60006020820190508181036000830152610e8881610e4c565b9050919050565b7f4e487b7100000000000000000000000000000000000000000000000000000000600052601160045260246000fd5b6000610ec982610c5d565b91507fffffffffffffffffffffffffffffffffffffffffffffffffffffffffffffffff821415610efc57610efb610e8f565b5b600182019050919050565b7f4e6f7420612076616c6964206164647265737300000000000000000000000000600082015250565b6000610f3d601383610da6565b9150610f4882610f07565b602082019050919050565b60006020820190508181036000830152610f6c81610f30565b9050919050565b7f4e487b7100000000000000000000000000000000000000000000000000000000600052603260045260246000fd5b6000610fad82610c5d565b9150610fb883610c5d565b925082821015610fcb57610fca610e8f565b5b828203905092915050565b6000610fe182610c5d565b9150610fec83610c5d565b9250827fffffffffffffffffffffffffffffffffffffffffffffffffffffffffffffffff0382111561102157611020610e8f565b5b828201905092915050565b7f4e487b7100000000000000000000000000000000000000000000000000000000600052603160045260246000fd5b7f43616e64696461746520646f6573206e6f742065786973740000000000000000600082015250565b6000611091601883610da6565b915061109c8261105b565b602082019050919050565b600060208201905081810360008301526110c081611084565b9050919050565b7f566f74696e6720706572696f64206973206f7665720000000000000000000000600082015250565b60006110fd601583610da6565b9150611108826110c7565b602082019050919050565b6000602082019050818103600083015261112c816110f0565b9050919050565b7f43616e64696461746520646f6573206e6f742065787369737400000000000000600082015250565b6000611169601983610da6565b915061117482611133565b602082019050919050565b600060208201905081810360008301526111988161115c565b9050919050565b7f612063616e6469646174652063616e6e6f7420766f7465000000000000000000600082015250565b60006111d5601783610da6565b91506111e08261119f565b602082019050919050565b60006020820190508181036000830152611204816111c8565b9050919050565b7f416c726561647920766f74656400000000000000000000000000000000000000600082015250565b6000611241600d83610da6565b915061124c8261120b565b602082019050919050565b6000602082019050818103600083015261127081611234565b9050919050565b600061128282610c5d565b915061128d83610c5d565b9250817fffffffffffffffffffffffffffffffffffffffffffffffffffffffffffffffff04831182151516156112c6576112c5610e8f565b5b82820290509291505056fea2646970667358221220154cbd6d947a4a6d81d116084cc546e55924a5fc7f3275536a11a8793845a54a64736f6c634300080a0033",
  "immutableReferences": {},
  "source": "// SPDX-License-Identifier: MIT\r\npragma solidity ^0.8.0;\r\n\r\n\r\ncontract votingV2{\r\n    address public Owner;\r\n    address[] public Candidate;\r\n    uint256 votingPeriodEnd;\r\n    uint256 candidateCount ;\r\n    mapping (address => uint256) public candidateIndex;\r\n    mapping (address => VotingStatus) public Voters;\r\n    mapping (address => uint256) public Votes;\r\n\r\n    enum VotingStatus{notVoted,hasVoted}\r\n\r\n    constructor(){\r\n        Owner = msg.sender; //sets the Owner\r\n    }\r\n\r\n    modifier onlyOwner(){ \r\n        require(msg.sender == Owner ,\"Not the owner\");\r\n        _;\r\n    }\r\n\r\n    modifier votingTimePeriod(){\r\n        require(block.timestamp <= votingPeriodEnd , \"Voting period is over\");\r\n        _;\r\n    }\r\n\r\n    function setVotingPeriod(uint256 _timeInHour) public onlyOwner {\r\n        _timeInHour = _timeInHour * 3600; //converting to seconds\r\n        votingPeriodEnd = block.timestamp + _timeInHour;\r\n\r\n    }\r\n\r\n    function addCandidate(address _Candidate) public onlyOwner{\r\n        require(_Candidate !=address(0),\"not a valid address\");\r\n        require(candidateIndex[_Candidate] == 0);\r\n        candidateIndex[_Candidate]++;\r\n        Candidate.push(_Candidate);\r\n    }\r\n\r\n    function removeCandidate(address _Candidate) public  onlyOwner{\r\n     require(_Candidate != address(0), \"Not a valid address\");\r\n\r\n        for (uint256 i = 0; i < Candidate.length; i++) {\r\n            if (_Candidate == Candidate[i]) {\r\n                for (uint256 j = i; j < Candidate.length - 1; j++) {\r\n                    Candidate[j] = Candidate[j + 1];\r\n                }\r\n                Candidate.pop();\r\n                candidateIndex[_Candidate] = 0;\r\n                return;\r\n            }\r\n     }\r\n\r\n    revert(\"Candidate does not exist\");\r\n}\r\n\r\n    function vote(address _Candidate) public  votingTimePeriod{\r\n        for(uint256 i = 0 ; i < Candidate.length; i++){\r\n            require(_Candidate == Candidate[i],\"Candidate does not exsist\");\r\n            \r\n        }\r\n            require(candidateIndex[msg.sender] == 0,\"a candidate cannot vote\");\r\n            require(Voters[msg.sender] == VotingStatus.notVoted,\"Already voted\" );\r\n\r\n            Votes[_Candidate] ++;\r\n            Voters[msg.sender] = VotingStatus.hasVoted;\r\n        \r\n    }\r\n\r\n    function candidateLength() public view returns(uint256){\r\n        return Candidate.length;\r\n    }\r\n\r\n\r\n}",
  "sourcePath": "D:\\votingapp\\contracts\\votingV2.sol",
  "compiler": {
    "name": "solc",
    "version": "0.8.10+commit.fc410830.Emscripten.clang"
  },
  "schemaVersion": "3.4.3",
  "updatedAt": "2023-07-19T10:57:55.892Z",
  "networkType": "ethereum",
  "devdoc": {
    "kind": "dev",
    "methods": {},
    "version": 1
  },
  "userdoc": {
    "kind": "user",
    "methods": {},
    "version": 1
  }
}